:020000040800F2
:1000000020450020AD090008090A0008090A000877
:10001000090A0008090A0008090A0008000000008F
:10002000000000000000000000000000090A0008B5
:10003000090A000800000000090A0008090A00086F
:10004000090A0008090A0008090A0008090A000844
:10005000090A0008090A0008750F0008090A0008C3
:10006000090A0008090A0008090A0008090A000824
:10007000090A0008090A0008BD0E0008090A00085C
:10008000090A0008090A0008090A0008090A000804
:10009000090A0008090A0008090A0008090A0008F4
:1000A000090A0008090A0008090A0008090A0008E4
:1000B000090A0008090A0008F5080008090A0008EA
:1000C000090A0008090A0008090A0008090A0008C4
:1000D000A10E0008090A0008090A0008090A000818
:1000E000090A0008090A0008090A0008090A0008A4
:1000F000090A0008090A0008090A0008090A000894
:10010000090A0008090A0008090A0008090A000883
:10011000090A0008090A0008090A0008090A000873
:10012000090A0008090A0008090A0008090A000863
:10013000090A0008090A0008090A0008090A000853
:10014000090A0008090A0008090A0008090A000843
:10015000090A0008090A0008090A0008090A000833
:10016000090A0008090A0008090A0008090A000823
:10017000090A0008090A0008090A0008090A000813
:10018000090A0008090A000890B484B000AF0346C9
:100190000A46FB711346BB710023FB60BB7903F079
:1001A00003039B000F2202FA03F3FB601649BB799D
:1001B0009B08DBB21846144ABB799B08DBB20233BA
:1001C00052F82320FB68DB431A40831C41F82320AC
:1001D0000D48BB799B08DBB21C460B4ABB799B08D8
:1001E000DBB2023352F82320F979BB7903F0030321
:1001F0009B0001FA03F31A43A31C40F8232000BF1D
:100200001037BD4690BC70470038014080B483B0C1
:1002100000AF0346FB71FB7903F00103002B04D010
:100220001A4B4FF400621A8303E0184B4FF400623C
:100230005A83FB7903F00203002B03D0144B0122F5
:100240001A8302E0124B01225A83FB7903F0040364
:10025000002B04D00D4B4FF480621A8303E00B4B4C
:100260004FF480625A83FB7903F00803002B04D01B
:10027000064B4FF480521A8303E0044B4FF4805234
:100280005A8300BF0C37BD4680BC7047000802404F
:10029000000C024080B400AF044B1B780133DAB28B
:1002A000024B1A7000BFBD4680BC70475900002049
:1002B00080B584B000AF03460A46FB711346BB719C
:1002C0000023FB600023BB60BB79002B02D0BB790D
:1002D000012B25D1A04B4FF480725A839F4B0422EF
:1002E0005A839E4B08225A830023FB6014E09A4BEA
:1002F00080225A83984B4FF480725A83974B042282
:100300005A83964B08225A83FFF7C4FF924B8022F0
:100310001A83FB680133FB60FB68BF2BE7DDBBE1A1
:10032000BB798F4AD35CBB718B4B40225A8300232D
:10033000BB60AAE1884B4FF480725A83874B04223A
:100340005A83864B08225A830023FB6014E0824BB9
:1003500080225A83804B4FF480725A837F4B042251
:100360005A837E4B08225A83FFF794FF7A4B8022F0
:100370001A83FB680133FB60FB680B2BE7DD00236E
:10038000FB607BE1744B80225A83F9797548BB6826
:100390001A4652001A4493001A460B465B000B445F
:1003A0001B011A44FB68134430F813301AB26E492B
:1003B00013465B0013440B4401331A78BB79134096
:1003C000DBB2002B04D0644B4FF480721A8303E03D
:1003D000614B4FF480725A83F9796448BB681A46BE
:1003E00052001A4493001A460B465B000B441B0153
:1003F0001A44FB68134430F813301AB25A491346B2
:100400005B0013440B4401331A78BB791340DBB211
:10041000002B03D0514B04221A8302E04F4B0422DD
:100420005A83F9795248BB681A4652001A4493001D
:100430001A460B465B000B441B011A44FB6813442D
:1004400030F813301AB2484913465B0013440B448A
:1004500001331A78BB791340DBB2002B03D03F4B3A
:1004600008221A8302E03D4B08225A83FFF712FF4D
:10047000394B80221A83F9793A48BB681A465200F0
:100480001A4493001A460B465B000B441B011A44A6
:10049000FB68134430F813301AB2334913465B003B
:1004A00013440B4402331A78BB791340DBB2002BA0
:1004B00004D0294B4FF480721A8303E0264B4FF48B
:1004C00080725A83F9792948BB681A4652001A4447
:1004D00093001A460B465B000B441B011A44FB6851
:1004E000134430F813301AB21F4913465B0013440B
:1004F0000B4402331A78BB791340DBB2002B03D0D4
:10050000164B04221A8302E0144B04225A83124B26
:1005100080225A83F9791648BB681A4652001A4459
:1005200093001A460B465B000B441B011A44FB6800
:10053000134430F813301AB20B4913465B001344CE
:100540000B4402331A78BB791340DBB2002B11D075
:10055000024B08221A8310E00008024000100240FB
:10056000601C0008781C000860000020F8200008CB
:10057000782500084A4B08225A83FFF78BFE494B27
:1005800080221A83474B80225A83F9794648BB68F8
:100590001A4652001A4493001A460B465B000B445D
:1005A0001B011A44FB68134430F813301AB23F4958
:1005B00013465B0013440B441A78BB791340DBB23B
:1005C000002B04D0374B4FF480721A8303E0354B75
:1005D0004FF480725A83F9793548BB681A46520045
:1005E0001A4493001A460B465B000B441B011A4445
:1005F000FB68134430F813301AB22C4913465B00E1
:1006000013440B441A78BB791340DBB2002B03D0A0
:10061000234B04221A8302E0214B04225A83214BEC
:1006200080225A83F9792348BB681A4652001A443B
:1006300093001A460B465B000B441B011A44FB68EF
:10064000134430F813301AB2184913465B001344B0
:100650000B441A78BB791340DBB2002B03D0104B4C
:1006600008221A8302E00E4B08225A83FFF712FE7B
:100670000C4B80221A83FB680133FB60FB680B2B59
:100680007FF780AEBB680133BB60BB68032B7FF78D
:1006900051AE044B40221A8300BF1037BD4680BDC7
:1006A0000010024000080240781C00086000002092
:1006B000F82000087825000880B582B000AF034616
:1006C0000A46FB711346BB71BA79FB79114618468D
:1006D000FFF7EEFD00BF0837BD4680BD90B484B083
:1006E00000AF0446084611461A462346FB710346EE
:1006F000BB710B467B7113463B710023FB600023EB
:10070000BB60FA79294BA3FB0213D9080B465B00A7
:100710000B449B00D31AFB71BA79244BA3FB021341
:10072000D9080B465B000B449B00D31ABB717A7946
:100730001E4BA3FB0213D9080B465B000B449B0026
:10074000D31A7B71F979BA7913465B0013449B0085
:100750000B44FB607A791346DB0013441B01BB603A
:10076000FA68BB681A44124913465B0013440B44F1
:100770003A791A70FA68BB681A440D4913465B004F
:1007800013440B4401333A7E1A70FA68BB681A446A
:10079000074913465B0013440B4402333A7F1A7037
:1007A00000BF1037BD4690BC704700BFABAAAAAAD5
:1007B0006000002080B485B000AF0346FB710B469B
:1007C000BB7113467B710023FB601CE01249FA6881
:1007D00013465B0013440B44FA791A700E49FA6809
:1007E00013465B0013440B440133BA791A700A496B
:1007F000FA6813465B0013440B4402337A791A708B
:10080000FB680133FB60FB68B3F5D86FDEDB00BF2C
:100810001437BD4680BC70476000002080B500AF33
:100820004FF4806001F0FCF800BF80BD80B582B05D
:1008300000AF0121022000F05BF94FF400533B6050
:1008400001233B710023BB7103237B710123FB71E7
:100850003B461946234800F0E9FB4FF4005121487C
:1008600000F08CFC0121042000F042F94FF4EE531B
:100870003B6001233B710023BB7103237B71012388
:10088000FB713B461946184800F0D0FB01210820B7
:1008900000F02EF948F201033B6001233B71002375
:1008A000BB7103237B710123FB713B4619460F4843
:1008B00000F0BCFB0121102000F01AF90C233B6072
:1008C00001233B710023BB7103237B710123FB7167
:1008D0003B461946064800F0A9FB00BF0837BD4655
:1008E00080BD00BF0004024000080240000C02402E
:1008F0000010024080B500AF264B1B8A9BB203F06C
:100900000103002B44D0234B9B899BB203F00103CE
:10091000002B3DD01F4B4FF6FE721A821E4B1B78E8
:100920000133DAB21C4B1A701B4B1B780B2B17D9F7
:10093000194B00221A70194B1B780133DAB2174B8E
:100940001A70164B1B78072B02D9144B00221A7011
:10095000104B124A12781146114A32F81120DA620D
:10096000104B4FF400421A830B4B1B781A460E4B68
:100970009B5C1846FFF74AFC074B1A78074B1B781D
:1009800019461046FFF798FE064B4FF400425A8373
:1009900000BF80BD000800405B0000205C0000201C
:1009A000681C0008000C0240F829000880B582B0DD
:1009B00000AF104B7B60104B3B6007E03B681A1D9B
:1009C0003A607A68111D796012681A603B680B4AB8
:1009D0009342F3D30A480B494FF000028842B8BF54
:1009E00040F8042BFADB00F013F800BF0837BD46CF
:1009F00080BD00BF042A0008000000205000002035
:100A000050000020203D002080B400AFFEE700BF72
:100A100080B586B002AF00F007FCFFF707FFFFF7D5
:100A2000FDFE0E21112000F0C9FA022000F0F6F8B8
:100A300000F050FA002200210020FFF7BBFE002347
:100A4000019300230093FF23002200210120FFF7E0
:100A500045FE0023FB600023BB600FE0FB685A1CCF
:100A6000FA60214AD05C2149BA6813465B001344FE
:100A70000B4402461A70BB680133BB60BB68B3F518
:100A8000D86FEBDB00237B6010E0FB685A1CFA6038
:100A9000154AD05C15497A6813465B0013440B4431
:100AA000013302461A707B6801337B607B68B3F5C3
:100AB000D86FEADB00233B6010E0FB685A1CFA6049
:100AC000094AD05C09493A6813465B0013440B4459
:100AD000023302461A703B6801333B603B68B3F552
:100AE000D86FEADBB5E700BFA0140020600000204B
:100AF00080B483B000AF78600B46FB70FB78002BAE
:100B000006D00949084B1A6B7B6813430B6306E058
:100B10000549054B1A6B7B68DB4313400B6300BF31
:100B20000C37BD4680BC70470038024080B483B0AB
:100B300000AF78600B46FB70FB78002B06D00949AC
:100B4000084B1A6C7B6813430B6406E00549054BA0
:100B50001A6C7B68DB4313400B6400BF0C37BD4647
:100B600080BC70470038024080B483B000AF78602A
:100B70000B46FB70FB78002B06D00949084B5A6CDA
:100B80007B6813434B6406E00549054B5A6C7B6850
:100B9000DB4313404B6400BF0C37BD4680BC70473D
:100BA0000038024080B483B000AF78600B46FB7021
:100BB000FB78002B06D00949084B1A6A7B6813435F
:100BC0000B6206E00549054B1A6A7B68DB4313405C
:100BD0000B6200BF0C37BD4680BC70470038024036
:100BE00080B483B000AF78600B46FB70FB78002BBD
:100BF00006D00949084B5A6A7B6813434B6206E0EA
:100C00000549054B5A6A7B68DB4313404B6200BFC2
:100C10000C37BD4680BC70470038024080B59AB0A2
:100C200000AF0346FB71994B9B6801211846FFF703
:100C30005FFF964B9B6901211846FFF759FF934BC5
:100C40009B6A01211846FFF753FF904B9B6B0121D4
:100C50001846FFF74DFF8D4B18688C4B1B7B9BB2E2
:100C60000522194600F098FA884B1869874B1B7FBC
:100C70009BB20522194600F08FFA844B186A834B09
:100C800093F82C309BB20522194600F085FA7F4B71
:100C9000186B7E4B93F83C309BB20522194600F04E
:100CA0007BFA022387F86430022387F8653000233B
:100CB00087F86630022387F86730744B9B883B6661
:100CC000724B1B6807F160021146184600F0AEF93E
:100CD0006E4B9B8A3B666D4B1B6907F160021146A8
:100CE000184600F0A3F9694B9B8C3B66674B1B6A67
:100CF00007F160021146184600F098F9634B9B8E8D
:100D00003B66624B1B6B07F160021146184600F010
:100D10008DF901214FF48040FFF708FF5C4800F097
:100D20000DFD0023A7F84C300023A7F84E30002318
:100D3000A7F85030FB79002B02D0FB79042B06D1A9
:100D40000023A7F852300023A7F854301FE0FB79A6
:100D5000012B02D0FB79052B06D10023A7F85230D6
:100D60000123A7F8543012E0FB79022B02D0FB7963
:100D7000062B06D10223A7F852300023A7F85430DF
:100D800005E00223A7F852300123A7F854300023CE
:100D9000A7F856302823A7F85830FB79002B08D045
:100DA000FB79012B05D0FB79022B02D0FB79032BB9
:100DB00003D10023A7F85A3002E08023A7F85A3065
:100DC0000723A7F85C3007F14C031946304800F0C0
:100DD000EFFC01212E4800F02FFD0E2387F848304C
:100DE000002387F84930002387F84A30012387F829
:100DF0004B3007F14803184600F024FE01214FF460
:100E00000010FFF775FE234800F0B6FA07F10C0357
:100E1000184600F0D9FB4FF4A253FB610023BB63DB
:100E20000023FB6300233B640023FB624FF48063D9
:100E30007B624FF480733B63174B3B6100237B6401
:100E40000023BB6200233B624FF400337B6300232B
:100E5000FB600023BB61114B7B6107F10C0319465A
:100E60000C4800F05BFB012210210A4800F0FEFB59
:100E700001220121064800F00BFD0121054800F088
:100E8000D9FB002318466837BD4680BD000000200E
:100E900000380040586002400C380040A014002088
:100EA00080B582B000AF044800F0E6FC0346FB7159
:100EB00000BF0837BD4680BD0038004080B500AF98
:100EC0000249034800F00CFC00BF80BD0080001800
:100ED0005860024080B586B000AF1F4B9B6801216F
:100EE0001846FFF705FE00233B751B4B5B7BFB752C
:100EF000194B9B883B61184B1B6807F11002114688
:100F0000184600F093F801214FF48040FFF72CFEC3
:100F1000114B1B7B00211846FFF736F90123BB60FC
:100F200000233B730C4B9B7B7B730123BB7307F14B
:100F30000803184600F0D0FC06233B7101237B71A7
:100F40000123BB710123FB713B1D184600F07AFDA4
:100F500000BF1837BD4680BD4000002080B400AF00
:100F600000BFBD4680BC704780B400AF00BFBD4627
:100F700080BC704780B582B000AF012000F01EFD3C
:100F80000346002B14D0012000F03CFD0A4B1A68E8
:100F9000094B9B881946104600F0D6F803467B6043
:100FA0007B68002B02D1FFF7D9FF01E0FFF7DCFFE0
:100FB00000BF0837BD4680BD4000002080B586B028
:100FC00000AF03460A46FB801346BB800121042084
:100FD000FFF7ACFDBB883B61FB88013B9BB2BB814B
:100FE0000023BB820023FB8107F10C0319460E4846
:100FF00000F088FD012241210B4800F00DFE1E2368
:101000003B7200237B720123BB720123FB7207F149
:101010000803184600F016FD0121034800F0DCFD2E
:1010200000BF1837BD4680BD0008004080B487B0BF
:1010300000AF7860396000237B6100233B610023AF
:10104000FB6000237B6176E001227B6902FA03F3F7
:101050003B613B681A683B691340FB60FA683B6977
:101060009A4265D17B681A687B695B00032101FAAB
:1010700003F3DB431A407B681A607B681A683B689D
:101080001B7919467B695B0001FA03F31A437B68FD
:101090001A603B681B79012B03D03B681B79022B3C
:1010A0002ED17B689A687B695B00032101FA03F308
:1010B000DB431A407B689A607B689A683B685B797F
:1010C00019467B695B0001FA03F31A437B689A6057
:1010D0007B685A687B699BB2012101FA03F3DB4309
:1010E0001A407B685A607B685A683B689B7919464E
:1010F0007B699BB201FA03F39BB21A437B685A6087
:101100007B68DA687B699BB25B00032101FA03F319
:10111000DB431A407B68DA607B68DA683B68DB791E
:1011200019467B695B0001FA03F31A437B68DA60B6
:101130007B6901337B617B690F2B85D900BF1C372D
:10114000BD4680BC704700BF80B485B000AF7860FA
:101150000B467B800023FB737B681A697B881340F6
:10116000002B02D00123FB7301E00023FB73FB7B08
:1011700018461437BD4680BC704700BF80B483B0AA
:1011800000AF78600B467B807B687A881A8300BF4B
:101190000C37BD4680BC704780B485B000AF786026
:1011A0000B467B8013467B700023FB600023BB60F3
:1011B0007A787B8803F007039B0002FA03F3FB6055
:1011C0007B88DB089BB218467B88DB089BB21A46FB
:1011D0007B68083253F822207B8803F007039B00CA
:1011E0000F2101FA03F3DB4302EA03017B6800F1FC
:1011F000080243F822107B88DB089BB21A467B6802
:10120000083253F82220FB681343BB607B88DB085D
:101210009BB21A467B680832B96843F8221000BFB7
:101220001437BD4680BC704780B500AF124A124BE0
:101230001B6843F0010313600F4B00229A600E4AB3
:101240000D4B1B6823F0847323F4803313600A4B27
:101250000A4A5A60084A084B1B6823F4802313602B
:10126000054B0022DA6000F00DF8054B4FF00062EC
:101270009A6000BF80BD00BF0038024010300024DB
:1012800000ED00E080B483B000AF00237B6000235A
:101290003B60354A344B1B6843F480331360324B58
:1012A0001B6803F400333B607B6801337B603B6861
:1012B000002B03D17B68B3F5A06FF0D12A4B1B68DC
:1012C00003F40033002B02D001233B6001E0002334
:1012D0003B603B68012B42D1234A234B1B6C43F0FC
:1012E00080531364214A214B1B6843F480431360ED
:1012F0001D4A1D4B9B6893601B4A1B4B9B6843F424
:1013000000439360184A184B9B6843F4A0539360C2
:10131000154B174A5A60144A134B1B6843F08073ED
:10132000136000BF104B1B6803F00073002BF9D053
:10133000104B40F205621A600B4A0B4B9B6823F07E
:1013400003039360084A084B9B6843F002039360D1
:1013500000BF054B9B6803F00C03082BF9D100BFBD
:101360000C37BD4680BC704700380240007000401A
:1013700008544007003C024080B483B000AF78605E
:101380007B681B6823F001027B681A607B6800227F
:101390001A607B6800225A607B6800229A607B6832
:1013A0000022DA607B6800221A617B6821225A6180
:1013B0007B68454A934203D1444B3D229A607EE0CC
:1013C0007B68434A934204D1404B4FF474629A6065
:1013D00075E07B683F4A934204D13C4B4FF4741252
:1013E0009A606CE07B683C4A934204D1374B4FF0E3
:1013F00074629A6063E07B68384A934203D1334B4E
:10140000374ADA605BE07B68364A934203D12F4B60
:10141000354ADA6053E07B68344A934203D12B4B60
:10142000334ADA604BE07B68324A934204D1274B5F
:101430004FF03D52DA6042E07B682F4A934203D17D
:101440002E4B3D229A603AE07B682D4A934204D1AC
:101450002A4B4FF474629A6031E07B68294A9342C8
:1014600004D1264B4FF474129A6028E07B68264A18
:10147000934204D1214B4FF074629A601FE07B6865
:10148000224A934203D11D4B154ADA6017E07B686C
:101490001F4A934203D1194B134ADA600FE07B686D
:1014A0001C4A934203D1154B114ADA6007E07B686E
:1014B000194A934203D1114B4FF03D52DA6000BFFD
:1014C0000C37BD4680BC704710600240006002408F
:1014D0002860024040600240586002407060024054
:1014E0003D00002088600240400F0020A0600240C4
:1014F00000003D20B86002401064024000640240D9
:101500002864024040640240586402407064024013
:1015100088640240A0640240B864024080B485B090
:1015200000AF786039600023FB607B681B68FB605C
:10153000FA68244B1340FB603B681A683B68DB6821
:101540001A433B685B691A433B689B691A433B68D3
:10155000DB691A433B681B6A1A433B685B6A1A43A0
:101560003B689B6A1A433B685B6B1A433B689B6B07
:101570001343FA681343FB607B68FA681A607B6860
:101580005B69FB60FB6823F00703FB603B68DA6A7A
:101590003B681B6B1343FA681343FB607B68FA6874
:1015A0005A613B681A697B685A603B685A687B6875
:1015B0009A603B689A687B68DA6000BF1437BD4662
:1015C00080BC70473F801CF080B483B000AF78606F
:1015D0007B6800221A607B6800225A607B680022C8
:1015E0009A607B680022DA607B6800221A617B685F
:1015F00000225A617B6800229A617B680022DA61CE
:101600007B6800221A627B6800225A627B68002293
:101610009A627B680022DA627B6800221A637B6828
:1016200000225A637B6800229A6300BF0C37BD46D4
:1016300080BC704780B483B000AF78600B46FB700D
:10164000FB78002B06D07B681B6843F001027B68A7
:101650001A6005E07B681B6823F001027B681A6052
:1016600000BF0C37BD4680BC704700BF80B485B05A
:1016700000AFF860B9601346FB71BB6803F08003EC
:10168000002B0FD0FB79002B06D0FB685B6943F081
:101690008002FB685A6105E0FB685B6923F0800209
:1016A000FB685A61BB68802B14D0FB79002B08D0F3
:1016B000FB681A68BB6803F01E031A43FB681A60D4
:1016C00008E0FB681A68BB6803F01E03DB431A409E
:1016D000FB681A6000BF1437BD4680BC704700BF6E
:1016E00080B485B000AF786039607B68104A93425F
:1016F00002D8104BFB6001E00F4BFB603B6803F02E
:101700000053002B07D03B6823F0F02323F0821313
:10171000FA68D36006E03B6823F0F02323F08213DD
:10172000FA68936000BF1437BD4680BC704700BFA5
:101730000F640240006002400064024080B582B045
:1017400000AF78607B68174A93420AD101214FF4B9
:101750008050FFF745FA00214FF48050FFF740FA20
:101760001CE07B68104A93420AD101214FF480406B
:10177000FFF718FA00214FF48040FFF713FA0DE04D
:101780007B680A4A934209D101214FF40040FFF7D8
:1017900009FA00214FF40040FFF704FA00BF0837B0
:1017A000BD4680BD0030014000380040003C004094
:1017B00080B485B000AF786039600023FB817B681E
:1017C0001B88FB81FB8903F44153FB813B681A882A
:1017D0003B685B8813439AB23B689B8813439AB279
:1017E0003B68DB8813439AB23B681B8913439AB268
:1017F0003B685B8913439AB23B689B8913439AB257
:101800003B68DB8913439AB2FB891343FB817B68F6
:10181000FA891A807B689B8B9BB223F400639AB28F
:101820007B689A833B681A8A7B681A8200BF1437E8
:10183000BD4680BC704700BF80B483B000AF786005
:101840000B46FB70FB78002B08D07B681B889BB293
:1018500043F040039AB27B681A8007E07B681B88DC
:101860009BB223F040039AB27B681A8000BF0C370A
:10187000BD4680BC704700BF80B483B000AF7860C5
:101880007B689B899BB218460C37BD4680BC70476D
:1018900080B483B000AF78600B467B8013467B70CA
:1018A0007B78002B08D07B689B889AB27B88134397
:1018B0009AB27B689A8009E07B689B889AB27B88A1
:1018C000DB439BB213409AB27B689A8000BF0C370F
:1018D000BD4680BC704700BF80B485B000AF786063
:1018E0000023FB60344BFB607B689B79002B4FD05F
:1018F0003149314B1A687B681B68DB4313400B602E
:101900002D492D4B5A687B681B68DB4313404B60A5
:101910007B681B791A46FB681344FB60FB68FA6816
:1019200011687A6812680A431A602349224B9A6840
:101930007B681B68DB4313408B601F491E4BDA68D2
:101940007B681B68DB431340CB607B685B79102BA3
:101950000ED11949184B9A687B681B6813438B603A
:101960001549154BDA687B681B681343CB601DE093
:10197000114BFB607B685B791A46FB681344FB6084
:10198000FB68FA6811687A6812680A431A600DE009
:101990007B681B791A46FB681344FB60FB68FA6896
:1019A00011687A681268D2430A401A6000BF14377F
:1019B000BD4680BC704700BF003C014080B485B08C
:1019C00000AF78600023FB730023BB600C4B1A68E8
:1019D0007B681340BB600A4B5A697B681340002B3D
:1019E00005D0BB68002B02D00123FB7301E000236C
:1019F000FB73FB7B18461437BD4680BC704700BFA5
:101A0000003C014080B483B000AF7860034A7B683B
:101A1000536100BF0C37BD4680BC7047003C01409D
:101A200080B483B000AF7860054A7B6843F0BF6341
:101A300043F40033D36000BF0C37BD4680BC704711
:101A400000ED00E080B485B000AF78600023FB7348
:101A50000023BB730F237B737B68DB78002B38D0AC
:101A6000264BDB68DB4303F4E0631B0AFB73FB7B61
:101A7000C3F10403BB737A7BFB7B42FA03F37B73F2
:101A80007B685B781A46BB7B02FA03F3FB737B68C7
:101A90009A787B7B1340DAB2FB7B1343FB73FB7BAF
:101AA0001B01FB73164A7B681B781344FA7B83F88F
:101AB0000023134A7B681B785B09DBB218467B68FE
:101AC0001B7803F01F03012101FA03F342F82030D1
:101AD0000FE00B497B681B785B09DBB218467B681B
:101AE0001B7803F01F0301229A4000F1200341F804
:101AF000232000BF1437BD4680BC704700ED00E0D6
:101B000000E100E080B485B000AF78603960002368
:101B1000FB817B681B88FB817B68284A934213D03A
:101B20007B68274A93420FD07B68B3F1804F0BD07C
:101B30007B68244A934207D07B68234A934203D0B0
:101B40007B68224A934208D1FB8923F07003FB8112
:101B50003B685A88FB891343FB817B681C4A93428C
:101B60000CD07B681B4A934208D0FB8923F4407356
:101B7000FB813B681A89FB891343FB817B68FA89E7
:101B80001A803B685A687B68DA623B681A887B680F
:101B90001A857B68094A934203D07B68084A9342BE
:101BA00004D13B689B7A9AB27B681A867B680122D3
:101BB0009A8200BF1437BD4680BC704700000140C8
:101BC000000401400004004000080040000C0040F8
:101BD000001000400014004080B483B000AF786073
:101BE0000B46FB70FB78002B08D07B681B889BB2F0
:101BF00043F001039AB27B681A8007E07B681B8878
:101C00009BB223F001039AB27B681A8000BF0C37A5
:101C1000BD4680BC704700BF80B483B000AF786021
:101C20000B467B8013467B707B78002B08D07B684B
:101C30009B899AB27B8813439AB27B689A8109E0A8
:101C40007B689B899AB27B88DB439BB213409AB234
:101C50007B689A8100BF0C37BD4680BC704700BFCF
:101C600001020408102040800E001C0038007000A3
:101C7000E000C001800300073B06AB051B058B0499
:101C8000FB036B03DB024B02BB012B019B000B0030
:101C90004706B7052705970407047703E7025702AD
:101CA000C7013701A70017005306C3053305A30476
:101CB00013048303F3026302D3014301B30023003F
:101CC0005F06CF053F05AF041F048F03FF026F02BD
:101CD000DF014F01BF002F003A06AA051A058A044A
:101CE000FA036A03DA024A02BA012A019A000A00D8
:101CF0004606B6052605960406047603E602560255
:101D0000C6013601A60016005206C2053205A2041D
:101D100012048203F2026202D2014201B2002200E6
:101D20005E06CE053E05AE041E048E03FE026E0264
:101D3000DE014E01BE002E003906A90519058904F1
:101D4000F9036903D9024902B9012901990009007F
:101D50004506B5052505950405047503E5025502FC
:101D6000C5013501A50015005106C1053105A104C5
:101D700011048103F1026102D1014101B10021008E
:101D80005D06CD053D05AD041D048D03FD026D020C
:101D9000DD014D01BD002D003806A8051805880499
:101DA000F8036803D8024802B80128019800080027
:101DB0004406B4052405940404047403E4025402A4
:101DC000C4013401A40014005006C0053005A0046D
:101DD00010048003F0026002D0014001B000200036
:101DE0005C06CC053C05AC041C048C03FC026C02B4
:101DF000DC014C01BC002C003706A7051705870441
:101E0000F7036703D7024702B701270197000700CE
:101E10004306B3052305930403047303E30253024B
:101E2000C3013301A30013004F06BF052F059F0414
:101E30000F047F03EF025F02CF013F01AF001F00DD
:101E40005B06CB053B05AB041B048B03FB026B025B
:101E5000DB014B01BB002B003606A60516058604E8
:101E6000F6036603D6024602B60126019600060076
:101E70004206B2052205920402047203E2025202F3
:101E8000C2013201A20012004E06BE052E059E04BC
:101E90000E047E03EE025E02CE013E01AE001E0085
:101EA0005A06CA053A05AA041A048A03FA026A0203
:101EB000DA014A01BA002A003506A5051505850490
:101EC000F5036503D5024502B5012501950005001E
:101ED0004106B1052105910401047103E10251029B
:101EE000C1013101A10011004D06BD052D059D0464
:101EF0000D047D03ED025D02CD013D01AD001D002D
:101F00005906C9053905A90419048903F9026902AA
:101F1000D9014901B90029003406A4051405840437
:101F2000F4036403D4024402B401240194000400C5
:101F30004006B0052005900400047003E002500242
:101F4000C0013001A00010004C06BC052C059C040B
:101F50000C047C03EC025C02CC013C01AC001C00D4
:101F60005806C8053805A80418048803F802680252
:101F7000D8014801B80028003306A30513058304DF
:101F8000F3036303D3024302B3012301930003006D
:101F90003F06AF051F058F04FF036F03DF024F02EB
:101FA000BF012F019F000F004B06BB052B059B04B3
:101FB0000B047B03EB025B02CB013B01AB001B007C
:101FC0005706C7053705A70417048703F7026702FA
:101FD000D7014701B70027003206A2051205820487
:101FE000F2036203D2024202B20122019200020015
:101FF0003E06AE051E058E04FE036E03DE024E0293
:10200000BE012E019E000E004A06BA052A059A045A
:102010000A047A03EA025A02CA013A01AA001A0023
:102020005606C6053605A60416048603F6026602A1
:10203000D6014601B60026003106A105110581042E
:10204000F1036103D1024102B101210191000100BC
:102050003D06AD051D058D04FD036D03DD024D023A
:10206000BD012D019D000D004906B9052905990402
:1020700009047903E9025902C9013901A9001900CB
:102080005506C5053505A50415048503F502650249
:10209000D5014501B50025003006A00510058004D6
:1020A000F0036003D0024002B00120019000000064
:1020B0003C06AC051C058C04FC036C03DC024C02E2
:1020C000BC012C019C000C004806B80528059804AA
:1020D00008047803E8025802C8013801A800180073
:1020E0005406C4053405A40414048403F4026402F1
:1020F000D4014401B40024006B06DB054B05BB048E
:102100002B049B030B037B02EB015B01CB003B0029
:102110007706E7055705C7043704A70317038702A7
:10212000F7016701D70047008306F3056305D30471
:102130004304B3032303930203027301E300530038
:102140008F06FF056F05DF044F04BF032F039F02B7
:102150000F027F01EF005F006A06DA054A05BA0444
:102160002A049A030A037A02EA015A01CA003A00D1
:102170007606E6055605C6043604A603160386024F
:10218000F6016601D60046008206F2056205D20419
:102190004204B2032203920202027201E2005200E0
:1021A0008E06FE056E05DE044E04BE032E039E025F
:1021B0000E027E01EE005E006906D9054905B904EC
:1021C0002904990309037902E9015901C900390079
:1021D0007506E5055505C5043504A50315038502F7
:1021E000F5016501D50045008106F1056105D104C1
:1021F0004104B1032103910201027101E100510088
:102200008D06FD056D05DD044D04BD032D039D0206
:102210000D027D01ED005D006806D8054805B80493
:102220002804980308037802E8015801C800380020
:102230007406E4055405C4043404A403140384029E
:10224000F4016401D40044008006F0056005D00468
:102250004004B0032003900200027001E00050002F
:102260008C06FC056C05DC044C04BC032C039C02AE
:102270000C027C01EC005C006706D7054705B7043B
:102280002704970307037702E7015701C7003700C8
:102290007306E3055305C3043304A3031303830246
:1022A000F3016301D30043007F06EF055F05CF0410
:1022B0003F04AF031F038F02FF016F01DF004F00D8
:1022C0008B06FB056B05DB044B04BB032B039B0256
:1022D0000B027B01EB005B006606D6054605B604E3
:1022E0002604960306037602E6015601C600360070
:1022F0007206E2055205C2043204A20312038202EE
:10230000F2016201D20042007E06EE055E05CE04B7
:102310003E04AE031E038E02FE016E01DE004E007F
:102320008A06FA056A05DA044A04BA032A039A02FD
:102330000A027A01EA005A006506D5054505B5048A
:102340002504950305037502E5015501C500350017
:102350007106E1055105C1043104A1031103810295
:10236000F1016101D10041007D06ED055D05CD045F
:102370003D04AD031D038D02FD016D01DD004D0027
:102380008906F9056905D9044904B90329039902A5
:1023900009027901E90059006406D4054405B40432
:1023A0002404940304037402E4015401C4003400BF
:1023B0007006E0055005C0043004A003100380023D
:1023C000F0016001D00040007C06EC055C05CC0407
:1023D0003C04AC031C038C02FC016C01DC004C00CF
:1023E0008806F8056805D8044804B803280398024D
:1023F00008027801E80058006306D3054305B304DA
:102400002304930303037302E3015301C300330066
:102410006F06DF054F05BF042F049F030F037F02E4
:10242000EF015F01CF003F007B06EB055B05CB04AE
:102430003B04AB031B038B02FB016B01DB004B0076
:102440008706F7056705D7044704B70327039702F4
:1024500007027701E70057006206D2054205B20481
:102460002204920302037202E2015201C20032000E
:102470006E06DE054E05BE042E049E030E037E028C
:10248000EE015E01CE003E007A06EA055A05CA0456
:102490003A04AA031A038A02FA016A01DA004A001E
:1024A0008606F6056605D6044604B603260396029C
:1024B00006027601E60056006106D1054105B10429
:1024C0002104910301037102E1015101C1003100B6
:1024D0006D06DD054D05BD042D049D030D037D0234
:1024E000ED015D01CD003D007906E9055905C904FE
:1024F0003904A90319038902F9016901D9004900C6
:102500008506F5056505D5044504B5032503950243
:1025100005027501E50055006006D0054005B004D0
:102520002004900300037002E0015001C00030005D
:102530006C06DC054C05BC042C049C030C037C02DB
:10254000EC015C01CC003C007806E8055805C804A5
:102550003804A80318038802F8016801D80048006D
:102560008406F4056405D4044404B40324039402EB
:1025700004027401E40054009B060B067B05EB0487
:102580005B04CB033B03AB021B028B01FB006B0024
:10259000A70617068705F7046704D7034703B702A2
:1025A0002702970107017700B30623069305030569
:1025B0007304E3035303C3023302A3011301830033
:1025C000BF062F069F050F057F04EF035F03CF02B1
:1025D0003F02AF011F018F009A060A067A05EA043E
:1025E0005A04CA033A03AA021A028A01FA006A00CC
:1025F000A60616068605F6046604D6034603B6024A
:102600002602960106017600B20622069205020510
:102610007204E2035203C2023202A20112018200DA
:10262000BE062E069E050E057E04EE035E03CE0258
:102630003E02AE011E018E00990609067905E904E5
:102640005904C9033903A90219028901F900690073
:10265000A50615068505F5046504D5034503B502F1
:102660002502950105017500B106210691050105B8
:102670007104E1035103C1023102A1011101810082
:10268000BD062D069D050D057D04ED035D03CD0200
:102690003D02AD011D018D00980608067805E8048D
:1026A0005804C8033803A80218028801F80068001B
:1026B000A40614068405F4046404D4034403B40299
:1026C0002402940104017400B00620069005000560
:1026D0007004E0035003C0023002A001100180002A
:1026E000BC062C069C050C057C04EC035C03CC02A8
:1026F0003C02AC011C018C00970607067705E70435
:102700005704C7033703A70217028701F7006700C2
:10271000A30613068305F3046304D3034303B30240
:102720002302930103017300AF061F068F05FF0408
:102730006F04DF034F03BF022F029F010F017F00D1
:10274000BB062B069B050B057B04EB035B03CB024F
:102750003B02AB011B018B00960606067605E604DC
:102760005604C6033603A60216028601F60066006A
:10277000A20612068205F2046204D2034203B202E8
:102780002202920102017200AE061E068E05FE04B0
:102790006E04DE034E03BE022E029E010E017E0079
:1027A000BA062A069A050A057A04EA035A03CA02F7
:1027B0003A02AA011A018A00950605067505E50484
:1027C0005504C5033503A50215028501F500650012
:1027D000A10611068105F1046104D1034103B10290
:1027E0002102910101017100AD061D068D05FD0458
:1027F0006D04DD034D03BD022D029D010D017D0021
:10280000B9062906990509057904E9035903C9029E
:102810003902A90119018900940604067405E4042B
:102820005404C4033403A40214028401F4006400B9
:10283000A00610068005F0046004D0034003B00237
:102840002002900100017000AC061C068C05FC04FF
:102850006C04DC034C03BC022C029C010C017C00C8
:10286000B8062806980508057804E8035803C80246
:102870003802A80118018800930603067305E304D3
:102880005304C3033303A30213028301F300630061
:102890009F060F067F05EF045F04CF033F03AF02DF
:1028A0001F028F01FF006F00AB061B068B05FB04A8
:1028B0006B04DB034B03BB022B029B010B017B0070
:1028C000B7062706970507057704E7035703C702EE
:1028D0003702A70117018700920602067205E2047B
:1028E0005204C2033203A20212028201F200620009
:1028F0009E060E067E05EE045E04CE033E03AE0287
:102900001E028E01FE006E00AA061A068A05FA044F
:102910006A04DA034A03BA022A029A010A017A0017
:10292000B6062606960506057604E6035603C60295
:102930003602A60116018600910601067105E10422
:102940005104C1033103A10211028101F1006100B0
:102950009D060D067D05ED045D04CD033D03AD022E
:102960001D028D01FD006D00A90619068905F904F7
:102970006904D9034903B9022902990109017900BF
:10298000B5062506950505057504E5035503C5023D
:102990003502A50115018500900600067005E004CA
:1029A0005004C0033003A00210028001F000600058
:1029B0009C060C067C05EC045C04CC033C03AC02D6
:1029C0001C028C01FC006C00A80618068805F8049F
:1029D0006804D8034803B802280298010801780067
:1029E000B4062406940504057404E4035403C402E5
:1029F0003402A401140184000B0A09080706050427
:042A000003020100CC
:102A04000004024000200000020000000D0000004D
:102A14000004024000800000020000000F000000DB
:102A24000004024000400000020000000E0000000C
:102A34000004024000100000020000000C0000002E
:102A44000000024001000000010000000002080034
:0400000508000000EF
:00000001FF
